:020000040800F2
:100000000028002045100008D50F0008DB0F00086D
:10001000E10F0008E70F0008ED0F000800000000E6
:10002000000000000000000000000000F30F0008C6
:10003000FF0F0008000000000B1000081710000858
:100040008D1000088D1000088D1000088D1000081C
:100050008D1000088D1000088D1000088D1000080C
:100060008D1000088D1000088D1000088D100008FC
:100070008D1000088D1000088D1000088D100008EC
:100080008D1000088D1000088D1000088D100008DC
:100090008D1000088D1000088D1000088D100008CC
:1000A0008D1000088D1000088D1000088D100008BC
:1000B000251000088D100008000000008D100008B9
:1000C0008D10000800000000000000008D100008E6
:1000D000000000008D1000088D10000800000000D6
:1000E0008D1000088D1000088D1000080000000021
:1000F0000000000000000000000000000000000000
:0C01000000000000000000005FF808F1A3
:10010C0010B5054C237833B9044B13B10448AFF345
:10011C0000800123237010BD5C0000200000000053
:10012C00DC26000808B5034B1BB103490348AFF3A9
:10013C00008008BD0000000060000020DC260008E4
:10014C0080B582B000AF00237B608EE04B4A7B68A9
:10015C0052F823204A497B6841F82320494A7B689E
:10016C0052F8232045497B6841F82320464A7B6896
:10017C0052F8232045497B6831F813301946104654
:10018C0001F06CFA034619463E4A7B6842F823108C
:10019C003B4A7B6852F8232038497B6851F823305E
:1001AC009A425FD1374A7B6852F8232033497B68E7
:1001BC0051F823309A4255D1354A7B6852F82320A6
:1001CC0030497B6851F823309A4237D02D4A7B68EE
:1001DC0052F823202E497B6841F82320294A7B685A
:1001EC0052F82330002B16D17B68002B02D1294BFF
:1001FC0001221A607B68012B02D1274B01221A6065
:10020C007B68022B02D1254B01221A60244A7B68A1
:10021C00642142F823101B4A7B6852F82330012BCF
:10022C0020D17B68002B02D11E4B00221A607B6808
:10023C00022B17D11C4B00221A6013E0184A7B6862
:10024C0052F823305A1E16497B6841F82320144A71
:10025C007B6852F82330002B04D10D4A7B680121B6
:10026C0042F823107B6801337B607B68022B7FF79D
:10027C006DAF00BF00BF0837BD4680BD0C0000202D
:10028C0000000020180000203C0000204800002046
:10029C0024000020780000207C000020800000203A
:1002AC0030000020840000208800002080B58EB033
:1002BC0000AF00F0E7FE00F0A5FA00F02BFB00F019
:1002CC00DDFA9F4801F040FE00237B6300233B6373
:1002DC000523FB620323BB6202237B62322000F006
:1002EC00FFFC322000F010FD322000F021FD002335
:1002FC00BB6000237B6000233B6000233B62002338
:10030C00FB610023BB61002000F0BEFB002000F06D
:10031C0031FC00F071FB00237B6100233B61642006
:10032C0000F01AFD642000F0B3FC322000F0C4FC95
:10033C000023FB73834B1B68012B2ED1814B1A6856
:10034C00814B1B689A420DD07F4B1B68002B09D147
:10035C007B6B01337B6300F04FFB7B6B042B01DD6C
:10036C0001237B63794B00221A60794B00221A60BF
:10037C00786B00F089FB734B1B68734A1360714BED
:10038C0000221A6000233B637B6B012B05D14FF0DD
:10039C00FF337B614FF0FF333B617B6B012B40F0F4
:1003AC008280FB7B032B61D801A252F823F000BFA3
:1003BC00CD030008F70300081B04000845040008DF
:1003CC007B69002B4BDC3B69002B48DC00F014FBF9
:1003DC00002240F614215F4801F057F90123FB730A
:1003EC007B6A3B61FB6A7B6139E07B69002B02DD38
:1003FC003B69002B35DC00F0FFFA0022B421554894
:10040C0001F043F90223FB73BB6A3B6129E07B6972
:10041C00002B28DC3B69002B25DC00F0EDFA0022D8
:10042C0041F20A414B4801F030F90323FB737B6A1C
:10043C007B61FB6A3B6116E03B69002B02DD7B694B
:10044C00002B12DC00F0D8FA00224FF4A5714148C1
:10045C0001F01BF90023FB73BB6A7B6105E000BF55
:10046C0004E000BF02E000BF00E000BF786900F0CC
:10047C000BFB386900F07EFB374B1B68012B08D156
:10048C007B69013B7B613B69013B3B61642000F074
:10049C00FFFB7B69002B01DA00237B613B69002B9E
:1004AC0001DA00233B617B6B022B40F094802B4BD9
:1004BC001B68012B12D10221264801F0FEF8042101
:1004CC00244801F0FAF80821224801F0F6F810212E
:1004DC00204801F0F2F8322000F002FC204B1B689F
:1004EC00012B07D11E4B00221A603B6B01333B637F
:1004FC000023BB61FA6A3B6B13443B603B68632B84
:10050C0003DD0023FB6200233B633B68092B41DDC9
:10051C003B68632B3EDC134B1B68012B3AD1BB6948
:10052C00002B23D13B68104A82FB03129210DB177D
:10053C00D31A184600F01EFB0123BB6127E000BF55
:10054C008C0000207800002084000020D4000020C3
:10055C00D80000200008014010010020E00000201D
:10056C007C000020FC000020676666663A689C4BA5
:10057C0083FB02139910D317C91A0B469B000B442B
:10058C005B00D11A084600F0F5FA0023BB6132205B
:10059C0000F0E2FB3B68092B02DC386800F0EAFA59
:1005AC00904B1B68012B16D18E4B1A688E4B1B6817
:1005BC009A4209D08C4B1B68002B05D1FA6A3B6B15
:1005CC001344FB6200233B63864B1B68864A136013
:1005DC00844B00221A607B6B032B7BD1834B1B68F3
:1005EC00012B13D12021824801F067F8402180486B
:1005FC0001F063F880217E4801F05FF84FF48071C0
:10060C007B4801F05AF8322000F092FB794B1B68C2
:10061C00012B05D1774B00221A603B6B01333B63F6
:10062C00BA6A3B6B13447B607B68632B03DD00234E
:10063C00BB6200233B637B68092B2ADD7B68632B41
:10064C0027DC6D4B1B68012B23D1FB69002B0CD1D4
:10065C007B68634A82FB03129210DB17D31A18468D
:10066C0000F088FA0123FB6110E07A685C4B83FB95
:10067C0002139910D317C91A0B469B000B445B004D
:10068C00D11A084600F076FA0023FB61322000F004
:10069C0077FB7B68092B02DC786800F06BFA514B16
:1006AC001B68012B16D14F4B1A684F4B1B689A4293
:1006BC0009D04D4B1B68002B05D1BA6A3B6B134418
:1006CC00BB6200233B63474B1B68474A1360454B97
:1006DC0000221A607B6B042B7FF42CAE474B1B68FB
:1006EC00012B16D14FF40071414800F0E6FF4FF496
:1006FC0080613F4800F0E1FF4FF400613C4800F09E
:10070C00DCFF4FF480513A4800F0D7FF322000F064
:10071C00FBFA384B1B68012B05D1364B00221A60B3
:10072C003B6B01333B637A6A3B6B1344BB60BB6826
:10073C00632B03DD00237B6200233B63BB68092B27
:10074C002ADDBB68632B27DC2D4B1B68012B23D1C7
:10075C003B6A002B0CD1BB68214A82FB031292101E
:10076C00DB17D31A184600F005FA01233B6210E0A0
:10077C00BA681B4B83FB02139910D317C91A0B468B
:10078C009B000B445B00D11A084600F0F3F90023E0
:10079C003B62322000F008FBBB68092B02DCB86816
:1007AC0000F0E8F90F4B1B68012B7FF4C3AD0D4B28
:1007BC001A680D4B1B689A4209D00B4B1B68002B17
:1007CC0005D17A6A3B6B13447B6200233B63054B78
:1007DC001B68054A1360034B00221A60AAE500BF90
:1007EC00676666668000002088000020F00000200C
:1007FC00000801407C000020F8000020E8000020E8
:10080C00F400002080B590B000AF07F11803282247
:10081C000021184601F030FF3B1D00221A605A607F
:10082C009A60DA601A610223BB610123BB62102358
:10083C00FB6200237B6307F11803184600F056FF98
:10084C000346002B01D000F01DFA0F237B60002320
:10085C00BB600023FB6000233B6100237B613B1DDD
:10086C000021184601F0C4F90346002B01D000F01A
:10087C0009FA00BF4037BD4680BD000080B586B088
:10088C0000AF07F1080300221A605A609A60DA6020
:10089C003B4600221A605A601D4B4FF080421A6092
:1008AC001B4B41F63F725A60194B00229A60184B51
:1008BC000922DA60164B00221A61154B00229A614C
:1008CC00134801F0F1FA0346002B01D000F0DAF9DD
:1008DC004FF48053BB6007F1080319460C4801F034
:1008EC0087FC0346002B01D000F0CCF900233B60C1
:1008FC0000237B603B461946054801F053FE034636
:10090C00002B01D000F0BEF900BF1837BD4680BDEA
:10091C008C00002080B588B000AF07F110030022D6
:10092C001A605A609A60DA602F4B9B692E4A43F02A
:10093C00100393612C4B9B6903F01003FB60FB6865
:10094C00294B9B69284A43F004039361264B9B690E
:10095C0003F00403BB60BB68234B9B69224A43F042
:10096C0008039361204B9B6903F008037B607B6851
:10097C00002241F6FE711D4800F087FE002247F66A
:10098C00FF311B4800F081FE4FF460433B610023B4
:10099C007B610123BB6107F110031946154800F078
:1009AC00E1FC41F6FE733B6101237B610023BB61DB
:1009BC000223FB6107F1100319460C4800F0D2FC2E
:1009CC0047F6FF333B6101237B610023BB610223AC
:1009DC00FB6107F110031946054800F0C3FC00BF8A
:1009EC002037BD4680BD00BF00100240000801400A
:1009FC00000C01400010014080B500AF0122022123
:100A0C00204800F042FE012204211E4800F03DFE69
:100A1C00012208211B4800F038FE01221021194840
:100A2C0000F033FE01222021164800F02EFE012298
:100A3C004021144800F029FE01228021114800F0C9
:100A4C0024FE01224FF480710E4800F01EFE01229C
:100A5C004FF400710B4800F018FE01224FF4806136
:100A6C00084800F012FE01224FF40061054800F026
:100A7C000CFE01224FF48051024800F006FE00BF2C
:100A8C0080BD00BF0008014080B584B000AF786025
:100A9C007B68092B65DC7B68002B62DB7A6813466C
:100AAC00DB009B1A9B00314A1344FB60FB681B68FC
:100ABC00002B0CBF01230023DBB21A4601212C486A
:100ACC0000F0E3FDFB6804331B68002B0CBF012313
:100ADC000023DBB21A460221254800F0D6FDFB6844
:100AEC0008331B68002B0CBF01230023DBB21A4612
:100AFC0004211F4800F0C9FDFB680C331B68002B58
:100B0C000CBF01230023DBB21A460821184800F061
:100B1C00BCFDFB6810331B68002B0CBF01230023AA
:100B2C00DBB21A461021124800F0AFFDFB681433FB
:100B3C001B68002B0CBF01230023DBB21A462021BB
:100B4C000B4800F0A2FDFB6818331B68002B0CBF90
:100B5C0001230023DBB21A464021054800F095FD25
:100B6C0000E000BF1037BD4680BD00BFF426000872
:100B7C00000C014080B584B000AF78607B68092B15
:100B8C006BDC7B68002B68DB7A681346DB009B1AF6
:100B9C009B00344A1344FB60FB681B68002B0CBFA2
:100BAC0001230023DBB21A4680212F4800F06DFD93
:100BBC00FB6804331B68002B0CBF01230023DBB242
:100BCC001A464FF48071284800F05FFDFB6808332B
:100BDC001B68002B0CBF01230023DBB21A464FF419
:100BEC000071214800F051FDFB680C331B68002B91
:100BFC000CBF01230023DBB21A464FF400611A48E4
:100C0C0000F043FDFB6810331B68002B0CBF012365
:100C1C000023DBB21A464FF48051134800F035FD27
:100C2C00FB6814331B68002B0CBF01230023DBB2C1
:100C3C001A464FF400510C4800F027FDFB6818339E
:100C4C001B68002B0CBF01230023DBB21A464FF4A8
:100C5C008041054800F019FD00E000BF1037BD468B
:100C6C0080BD00BFF4260008000C014080B582B0A6
:100C7C0000AF786000F0ACF8FFF762FA00BF0837FD
:100C8C00BD4680BD80B400AF72B600BFFEE7000069
:100C9C0080B483B000AF7860054A7B681360054B65
:100CAC0000221A6000BF0C37BD4680BC704700BFE5
:100CBC000C0100201001002080B483B000AF7860DC
:100CCC00054B00221A60054A7B68136000BF0C3785
:100CDC00BD4680BC704700BF1401002018010020E5
:100CEC0080B483B000AF7860054A7B681360054B15
:100CFC0000221A6000BF0C37BD4680BC704700BF95
:100D0C00DC000020E000002080B483B000AF7860ED
:100D1C00054A7B681360054B00221A6000BF0C3734
:100D2C00BD4680BC704700BFE4000020E8000020F6
:100D3C0080B483B000AF7860054A7B681360054BC4
:100D4C0000221A6000BF0C37BD4680BC704700BF44
:100D5C00EC000020F000002080B483B000AF78607D
:100D6C00054A7B681360054B00221A6000BF0C37E4
:100D7C00BD4680BC704700BF00010020FC00002075
:100D8C0080B483B000AF7860054A7B681360054B74
:100D9C0000221A6000BF0C37BD4680BC704700BFF4
:100DAC0004010020F800002080B483B000AF78600C
:100DBC00054A7B681360054B00221A6000BF0C3794
:100DCC00BD4680BC704700BF08010020F400002025
:100DDC0080B400AF414B1B68002B0BDD3F4B1B68F5
:100DEC00013B3E4A13603D4B1B68002B02DC3C4B25
:100DFC0001221A603B4B1B68002B0BDD394B1B6827
:100E0C00013B384A1360374B1B68002B02DC364B16
:100E1C0001221A60354B1B68002B0BDD334B1B6812
:100E2C00013B324A1360314B1B68002B02DC304B08
:100E3C0001221A602F4B1B68002B0BDD2D4B1B68FE
:100E4C00013B2C4A13602B4B1B68002B02DC2A4BFA
:100E5C0001221A60294B1B68002B0BDD274B1B68EA
:100E6C00013B264A1360254B1B68002B02DC244BEC
:100E7C0001221A60234B1B68002B0BDD214B1B68D6
:100E8C00013B204A13601F4B1B68002B02DC1E4BDE
:100E9C0001221A601D4B1B68002B0BDD1B4B1B68C2
:100EAC00013B1A4A1360194B1B68002B02DC184BD0
:100EBC0001221A60174B1B68002B0BDD154B1B68AE
:100ECC00013B144A1360134B1B68002B02DC124BC2
:100EDC0001221A6000BFBD4680BC7047E4000020B0
:100EEC00E8000020DC000020E0000020EC000020E6
:100EFC00F000002000010020FC0000200401002074
:100F0C00F800002008010020F40000201801002047
:100F1C00140100200C0100201001002080B485B0C9
:100F2C0000AF154B9B69144A43F001039361124BBC
:100F3C009B6903F00103BB60BB680F4BDB690E4A76
:100F4C0043F08053D3610C4BDB6903F080537B601F
:100F5C007B680A4B5B68FB60FB6823F0E063FB601B
:100F6C00FB6843F08063FB60044AFB68536000BF7E
:100F7C001437BD4680BC7047001002400000014091
:100F8C0080B584B000AF78607B681B68B3F1804F8C
:100F9C0013D10C4BDB690B4A43F00103D361094BB2
:100FAC00DB6903F00103FB60FB68002200211C20BD
:100FBC0000F0A1F91C2000F0BAF900BF1037BD46B3
:100FCC0080BD00BF0010024080B400AFFEE780B4CB
:100FDC0000AFFEE780B400AFFEE780B400AFFEE7E1
:100FEC0080B400AFFEE780B400AF00BFBD4680BC4C
:100FFC00704780B400AF00BFBD4680BC704780B462
:10100C0000AF00BFBD4680BC704780B500AF00F09C
:10101C007FF800BF80BD000080B500AF024800F033
:10102C00DFFF00BF80BD00BF8C00002080B400AF8C
:10103C0000BFBD4680BC7047FFF7F8FF0B480C495A
:10104C000C4A002302E0D458C4500433C4188C4218
:10105C00F9D3094A094C002301E013600432A2427F
:10106C00FBD301F011FBFFF721F9704700000020C2
:10107C005C000020382800085C00002020010020C3
:10108C00FEE7000080B500AF084B1B68074A43F031
:10109C0010031360032000F023F90F2000F008F870
:1010AC00FFF73CFF0023184680BD00BF0020024024
:1010BC0080B582B000AF7860124B1A68124B1B7867
:1010CC0019464FF47A73B3FBF1F3B2FBF3F3184602
:1010DC0000F03BF90346002B01D001230EE07B68A6
:1010EC000F2B0AD8002279684FF0FF3000F003F97B
:1010FC00064A7B681360002300E00123184608377A
:10110C00BD4680BD50000020580000205400002037
:10111C0080B400AF054B1B781A46054B1B68134473
:10112C00034A136000BFBD4680BC704758000020C6
:10113C001C01002080B400AF024B1B681846BD4652
:10114C0080BC70471C01002080B485B000AF786073
:10115C007B6803F00703FB600C4BDB68BB60BA6871
:10116C004FF6FF031340BB60FB681A02BB681343C6
:10117C0043F0BF6343F40033BB60044ABB68D360E5
:10118C0000BF1437BD4680BC704700BF00ED00E0C7
:10119C0080B400AF044BDB681B0A03F0070318464E
:1011AC00BD4680BC704700BF00ED00E080B483B04A
:1011BC0000AF0346FB7197F90730002B0BDBFB7973
:1011CC0003F01F02064997F907305B09012000FA6A
:1011DC0002F241F8232000BF0C37BD4680BC70479B
:1011EC0000E100E080B483B000AF03463960FB71CE
:1011FC0097F90730002B0ADB3B68DAB20C4997F9F8
:10120C0007301201D2B20B4483F800230AE03B688A
:10121C00DAB20849FB7903F00F03043B1201D2B296
:10122C000B441A7600BF0C37BD4680BC704700BF1C
:10123C0000E100E000ED00E080B489B000AFF860A0
:10124C00B9607A60FB6803F00703FB61FB69C3F1CB
:10125C000703042B28BF0423BB61FB690433062B53
:10126C0002D9FB69033B00E000237B614FF0FF32A6
:10127C00BB6902FA03F3DA43BB681A407B699A40F4
:10128C004FF0FF317B6901FA03F3D9437B680B40C4
:10129C00134318462437BD4680BC704780B582B0D6
:1012AC0000AF78607B68013BB3F1807F01D30123F1
:1012BC000FE00A4A7B68013B53600F214FF0FF306F
:1012CC00FFF790FF054B00229A60044B07221A602F
:1012DC00002318460837BD4680BD00BF10E000E073
:1012EC0080B582B000AF78607868FFF72DFF00BF43
:1012FC000837BD4680BD80B586B000AF0346B960E7
:10130C007A60FB7300237B61FFF742FF78617A6898
:10131C00B9687869FFF790FF024697F90F301146CC
:10132C001846FFF75FFF00BF1837BD4680BD80B57C
:10133C0082B000AF0346FB7197F907301846FFF7F0
:10134C0035FF00BF0837BD4680BD80B582B000AF09
:10135C0078607868FFF7A2FF034618460837BD4649
:10136C0080BD000080B48BB000AF78603960002382
:10137C007B6200233B6261E101227B6A02FA03F388
:10138C00FB613B681B68FA691340BB61BA69FB6976
:10139C009A4240F050813B685B68974A93425ED01A
:1013AC00954A934275D8954A934258D0934A9342A2
:1013BC006FD8934A934252D0914A934269D8914A3A
:1013CC0093424CD08F4A934263D88F4A934246D073
:1013DC008D4A93425DD8122B2AD8122B59D801A2D0
:1013EC0052F823F06B140008451400085714000839
:1013FC00991400089F1400089F1400089F140008FB
:10140C009F1400089F1400089F1400089F140008E4
:10141C009F1400089F1400089F1400089F140008D4
:10142C009F1400089F1400084D1400086114000854
:10143C00764A934213D02CE03B68DB683B6229E090
:10144C003B68DB6804333B6224E03B68DB680833B1
:10145C003B621FE03B68DB680C333B621AE03B6885
:10146C009B68002B02D104233B6213E03B689B6812
:10147C00012B05D108233B627B68FA691A6109E0EC
:10148C0008233B627B68FA695A6103E000233B62E4
:10149C0000E000BFBB69FF2B01D87B6801E07B68D3
:1014AC0004337B61BB69FF2B02D87B6A9B0002E093
:1014BC007B6A083B9B003B617B691A680F213B6987
:1014CC0001FA03F3DB431A40396A3B6901FA03F36F
:1014DC001A437B691A603B685B6803F08053002BEE
:1014EC0000F0A9804A4B9B69494A43F00103936180
:1014FC00474B9B6903F00103BB60BB68454A7B6AA1
:10150C009B08023352F82330FB607B6A03F0030321
:10151C009B000F2202FA03F3DB43FA681340FB60D3
:10152C007B683D4A93420DD07B683C4A934207D07E
:10153C007B683B4A934201D1022304E0032302E07F
:10154C00012300E000237A6A02F003029200934028
:10155C00FA681343FB602F497B6A9B080233FA68D5
:10156C0041F823203B685B6803F48013002B06D002
:10157C002C4B9A682B49BB6913438B6006E0294BB3
:10158C009A68BB69DB43274913408B603B685B68F7
:10159C0003F40013002B06D0224BDA682149BB69F7
:1015AC001343CB6006E01F4BDA68BB69DB431D4974
:1015BC001340CB603B685B6803F40033002B06D010
:1015CC00184B5A681749BB6913434B6006E0154B1F
:1015DC005A68BB69DB43134913404B603B685B683B
:1015EC0003F48033002B1FD00E4B1A680D49BB69D6
:1015FC0013430B601FE000BF0000321000003110DD
:10160C000000221000002110000012100000111028
:10161C00001002400000014000080140000C014095
:10162C0000100140000401400B4B1A68BB69DB43FE
:10163C00094913400B607B6A01337B623B681A6873
:10164C007B6A22FA03F3002B7FF496AE00BF00BF37
:10165C002C37BD4680BC70470004014080B485B077
:10166C0000AF78600B467B807B689A687B88134060
:10167C00002B02D00123FB7301E00023FB73FB7BE7
:10168C0018461437BD4680BC704780B483B000AF99
:10169C0078600B467B8013467B707B78002B03D0E5
:1016AC007A887B681A6103E07B881A047B681A616C
:1016BC0000BF0C37BD4680BC704780B485B000AF0E
:1016CC0078600B467B807B68DB68FB607A88FB6804
:1016DC0013401A04FB68D9437B880B401A437B6880
:1016EC001A6100BF1437BD4680BC704780B586B008
:1016FC0000AF78607B68002B01D1012372E27B681C
:10170C001B6803F00103002B00F08780924B5B6891
:10171C0003F00C03042B0CD08F4B5B6803F00C0311
:10172C00082B12D18C4B5B6803F48033B3F5803FEC
:10173C000BD1894B1B6803F40033002B6CD07B68F6
:10174C005B68002B68D101234CE27B685B68B3F5C6
:10175C00803F06D1804B1B687F4A43F48033136073
:10176C002EE07B685B68002B0CD17B4B1B687A4AA4
:10177C0023F480331360784B1B68774A23F480235F
:10178C0013601DE07B685B68B3F5A02F0CD1724B26
:10179C001B68714A43F4802313606F4B1B686E4ABD
:1017AC0043F4803313600BE06B4B1B686A4A23F4E1
:1017BC0080331360684B1B68674A23F480231360E3
:1017CC007B685B68002B13D0FFF7B4FC386108E032
:1017DC00FFF7B0FC02463B69D31A642B01D90323F3
:1017EC0000E25D4B1B6803F40033002BF0D014E0D7
:1017FC00FFF7A0FC386108E0FFF79CFC02463B6950
:10180C00D31A642B01D90323ECE1534B1B6803F46B
:10181C000033002BF0D100E000BF7B681B6803F0A5
:10182C000203002B63D04C4B5B6803F00C03002BC2
:10183C000BD0494B5B6803F00C03082B1CD1464BB7
:10184C005B6803F48033002B16D1434B1B6803F009
:10185C000203002B05D07B681B69012B01D00123EF
:10186C00C0E13D4B1B6823F0F8027B685B69DB0031
:10187C00394913430B603AE07B681B69002B20D07D
:10188C00364B01221A60FFF755FC386108E0FFF770
:10189C0051FC02463B69D31A022B01D90323A1E167
:1018AC002D4B1B6803F00203002BF0D02A4B1B6856
:1018BC0023F0F8027B685B69DB00274913430B605C
:1018CC0015E0264B00221A60FFF734FC386108E063
:1018DC00FFF730FC02463B69D31A022B01D90323D4
:1018EC0080E11D4B1B6803F00203002BF0D17B68D9
:1018FC001B6803F00803002B3AD07B689B69002B14
:10190C0019D0174B01221A60FFF714FC386108E05C
:10191C00FFF710FC02463B69D31A022B01D90323B3
:10192C0060E10D4B5B6A03F00203002BF0D0012049
:10193C0000F09CFA1CE00A4B00221A60FFF7FAFB3D
:10194C0038610FE0FFF7F6FB02463B69D31A022B16
:10195C0008D9032346E100BF0010024000004242B8
:10196C0080044242924B5B6A03F00203002BE9D1E4
:10197C007B681B6803F00403002B00F0A680002397
:10198C00FB758B4BDB6903F08053002B0DD1884B1F
:10199C00DB69874A43F08053D361854BDB6903F0E5
:1019AC008053BB60BB680123FB75824B1B6803F43F
:1019BC008073002B18D17F4B1B687E4A43F48073D5
:1019CC001360FFF7B7FB386108E0FFF7B3FB024683
:1019DC003B69D31A642B01D9032303E1754B1B68B4
:1019EC0003F48073002BF0D07B68DB68012B06D1ED
:1019FC006F4B1B6A6E4A43F0010313622DE07B6848
:101A0C00DB68002B0CD16A4B1B6A694A23F001037B
:101A1C001362674B1B6A664A23F0040313621CE0D3
:101A2C007B68DB68052B0CD1614B1B6A604A43F069
:101A3C00040313625E4B1B6A5D4A43F0010313629D
:101A4C000BE05B4B1B6A5A4A23F001031362584BA1
:101A5C001B6A574A23F0040313627B68DB68002B74
:101A6C0015D0FFF767FB38610AE0FFF763FB02460E
:101A7C003B69D31A41F28832934201D90323B1E076
:101A8C004B4B1B6A03F00203002BEED014E0FFF764
:101A9C0051FB38610AE0FFF74DFB02463B69D31A54
:101AAC0041F28832934201D903239BE0404B1B6ADD
:101ABC0003F00203002BEED1FB7D012B05D13C4B37
:101ACC00DB693B4A23F08053D3617B68DB69002BD5
:101ADC0000F08780364B5B6803F00C03082B61D059
:101AEC007B68DB69022B46D1334B00221A60FFF76F
:101AFC0021FB386108E0FFF71DFB02463B69D31A56
:101B0C00022B01D903236DE0294B1B6803F00073F2
:101B1C00002BF0D17B681B6AB3F5803F08D1244BB6
:101B2C005B6823F400327B689B68214913434B604C
:101B3C001F4B5B6823F474127B68196A7B685B6AC1
:101B4C000B431B4913434B601B4B01221A60FFF7DD
:101B5C00F1FA386108E0FFF7EDFA02463B69D31A57
:101B6C00022B01D903233DE0114B1B6803F00073DA
:101B7C00002BF0D035E0104B00221A60FFF7DAFA98
:101B8C00386108E0FFF7D6FA02463B69D31A022BFC
:101B9C0001D9032326E0064B1B6803F00073002BCE
:101BAC00F0D11EE07B68DB69012B07D1012319E022
:101BBC000010024000700040600042420B4B5B681A
:101BCC00FB60FB6803F480327B681B6A9A4206D187
:101BDC00FB6803F470127B685B6A9A4201D00123A4
:101BEC0000E0002318461837BD4680BD00100240A7
:101BFC0080B584B000AF786039607B68002B01D170
:101C0C000123D0E06A4B1B6803F007033A689A4241
:101C1C0010D9674B1B6823F0070265493B681343D7
:101C2C000B60634B1B6803F007033A689A4201D0C0
:101C3C000123B8E07B681B6803F00203002B20D063
:101C4C007B681B6803F00403002B05D0594B5B68C1
:101C5C00584A43F4E06353607B681B6803F0080345
:101C6C00002B05D0534B5B68524A43F460535360CE
:101C7C00504B5B6823F0F0027B689B684D49134323
:101C8C004B607B681B6803F00103002B40D07B6822
:101C9C005B68012B07D1474B1B6803F40033002B07
:101CAC0015D101237FE07B685B68022B07D1414B88
:101CBC001B6803F00073002B09D1012373E03D4B2B
:101CCC001B6803F00203002B01D101236BE0394B9D
:101CDC005B6823F003027B685B68364913434B60F7
:101CEC00FFF728FAF8600AE0FFF724FA0246FB68CF
:101CFC00D31A41F28832934201D9032353E02D4B7E
:101D0C005B6803F00C027B685B689B009A42EBD12A
:101D1C00274B1B6803F007033A689A4210D2244BF6
:101D2C001B6823F0070222493B6813430B60204BCE
:101D3C001B6803F007033A689A4201D0012332E092
:101D4C007B681B6803F00403002B08D0194B5B68FD
:101D5C0023F4E0627B68DB68164913434B607B68B5
:101D6C001B6803F00803002B09D0124B5B6823F4AB
:101D7C0060527B681B69DB000E4913434B6000F01B
:101D8C0021F802460B4B5B681B0903F00F030A4951
:101D9C00CB5C22FA03F3094A1360094B1B68184603
:101DAC00FFF786F9002318461037BD4680BD00BFEB
:101DBC0000200240001002400C28000850000020B7
:101DCC005400002080B487B000AF0023FB600023D8
:101DDC00BB6000237B6100237B6000233B611E4BB7
:101DEC005B68FB60FB6803F00C03042B02D0082B30
:101DFC0003D027E0194B3B6127E0FB689B0C03F0F9
:101E0C000F03174AD35C7B60FB6803F48033002B11
:101E1C0010D0114B5B685B0C03F00103114AD35CCF
:101E2C00BB607B680D4A03FB02F2BB68B2FBF3F3A9
:101E3C007B6104E07B680C4A02FB03F37B617B69EA
:101E4C003B6102E0054B3B6100BF3B6918461C3708
:101E5C00BD4680BC704700BF0010024000127A00E3
:101E6C001C2800082C28000800093D0080B485B00F
:101E7C0000AF78600A4B1B680A4AA2FB03235B0A7B
:101E8C007A6802FB03F3FB6000BFFB685A1EFA6022
:101E9C00002BF9D100BF00BF1437BD4680BC704782
:101EAC0050000020D34D621080B582B000AF786036
:101EBC007B68002B01D1012341E07B6893F83D3016
:101ECC00DBB2002B06D17B68002283F83C207868BB
:101EDC00FFF756F87B68022283F83D207B681A686E
:101EEC007B6804331946104600F06EFA7B680122B9
:101EFC0083F846207B68012283F83E207B68012210
:101F0C0083F83F207B68012283F840207B68012204
:101F1C0083F841207B68012283F842207B680122F0
:101F2C0083F843207B68012283F844207B680122DC
:101F3C0083F845207B68012283F83D200023184656
:101F4C000837BD4680BD000080B485B000AF786016
:101F5C007B6893F83D30DBB2012B01D0012335E0D7
:101F6C007B68022283F83D207B681B68DA687B68FB
:101F7C001B6842F00102DA607B681B68164A9342C8
:101F8C0009D07B681B68B3F1804F04D07B681B6859
:101F9C00124A934211D17B681B689B6803F00703BC
:101FAC00FB60FB68062B10D07B681B681A687B688B
:101FBC001B6842F001021A6007E07B681B681A6814
:101FCC007B681B6842F001021A6000231846143724
:101FDC00BD4680BC704700BF002C0140000400408F
:101FEC0080B582B000AF78607B681B681B6903F01A
:101FFC000203022B22D17B681B68DB6803F002030F
:10200C00022B1BD17B681B686FF002021A617B6884
:10201C0001221A777B681B689B6903F00303002B72
:10202C0003D0786800F0B4F905E0786800F0A7F9FF
:10203C00786800F0B6F97B6800221A777B681B6819
:10204C001B6903F00403042B22D17B681B68DB683B
:10205C0003F00403042B1BD17B681B686FF0040294
:10206C001A617B6802221A777B681B689B6903F4F0
:10207C004073002B03D0786800F08AF905E078688B
:10208C0000F07DF9786800F08CF97B6800221A77F3
:10209C007B681B681B6903F00803082B22D17B6843
:1020AC001B68DB6803F00803082B1BD17B681B68DB
:1020BC006FF008021A617B6804221A777B681B6830
:1020CC00DB6903F00303002B03D0786800F060F9A0
:1020DC0005E0786800F053F9786800F062F97B68E5
:1020EC0000221A777B681B681B6903F01003102B06
:1020FC0022D17B681B68DB6803F01003102B1BD10B
:10210C007B681B686FF010021A617B6808221A77D3
:10211C007B681B68DB6903F44073002B03D0786881
:10212C0000F036F905E0786800F029F9786800F0DD
:10213C0038F97B6800221A777B681B681B6903F0EF
:10214C000103012B0ED17B681B68DB6803F00103D4
:10215C00012B07D17B681B686FF001021A6178684C
:10216C00FEF784FD7B681B681B6903F08003802BE2
:10217C000ED17B681B68DB6803F08003802B07D1D2
:10218C007B681B686FF080021A61786800F06BFA4C
:10219C007B681B681B6903F04003402B0ED17B68E6
:1021AC001B68DB6803F04003402B07D17B681B687E
:1021BC006FF040021A61786800F0FCF87B681B68CD
:1021CC001B6903F02003202B0ED17B681B68DB6896
:1021DC0003F02003202B07D17B681B686FF02002D3
:1021EC001A61786800F036FA00BF0837BD4680BD2A
:1021FC0080B584B000AF786039600023FB737B68D6
:10220C0093F83C30012B01D10223B4E07B6801220E
:10221C0083F83C207B68022283F83D207B681B6896
:10222C009B68BB60BB6823F07703BB60BB6823F47F
:10223C007F43BB607B681B68BA689A603B681B680D
:10224C00B3F5005F3ED0B3F5005F00F28780B3F5C5
:10225C00805F00F08680B3F5805F7FD8702B1AD03A
:10226C00702B7BD8602B50D0602B77D8502B3CD068
:10227C00502B73D8402B58D0402B6FD8302B64D0B8
:10228C00302B6BD8202B60D0202B67D8002B5CD048
:10229C00102B5AD062E07B6818683B6899683B68E1
:1022AC005A683B68DB6800F05EF97B681B689B68CA
:1022BC00BB60BB6843F07703BB607B681B68BA6884
:1022CC009A604FE07B6818683B6899683B685A686D
:1022DC003B68DB6800F047F97B681B689A687B6891
:1022EC001B6842F480429A603CE07B6818683B684B
:1022FC0059683B68DB681A4600F0BEF87B681B68BF
:10230C005021184600F015F92CE07B6818683B68E2
:10231C0059683B68DB681A4600F0DCF87B681B6880
:10232C006021184600F005F91CE07B6818683B68D2
:10233C0059683B68DB681A4600F09EF87B681B689E
:10234C004021184600F0F5F80CE07B681A683B68F1
:10235C001B681946104600F0ECF803E00123FB73F0
:10236C0000E000BF7B68012283F83D207B680022DF
:10237C0083F83C20FB7B18461037BD4680BD80B4EB
:10238C0083B000AF786000BF0C37BD4680BC70478F
:10239C0080B483B000AF786000BF0C37BD4680BC02
:1023AC00704780B483B000AF786000BF0C37BD4677
:1023BC0080BC704780B483B000AF786000BF0C372E
:1023CC00BD4680BC7047000080B485B000AF78601B
:1023DC0039607B681B68FB607B68254A934207D099
:1023EC007B68B3F1804F03D07B68224A934208D1BB
:1023FC00FB6823F07003FB603B685B68FA6813436F
:10240C00FB607B681A4A934207D07B68B3F1804F1C
:10241C0003D07B68174A934208D1FB6823F44073BE
:10242C00FB603B68DB68FA681343FB60FB6823F0D6
:10243C0080023B685B691343FB607B68FA681A6037
:10244C003B689A687B68DA623B681A687B689A62B8
:10245C007B68074A934203D13B681A697B681A630D
:10246C007B6801225A6100BF1437BD4680BC70479F
:10247C00002C01400004004080B487B000AFF8602D
:10248C00B9607A60FB681B6A7B61FB681B6A23F08E
:10249C000102FB681A62FB689B693B613B6923F094
:1024AC00F0033B617B681B013A6913433B617B6919
:1024BC0023F00A037B617A69BB6813437B61FB6879
:1024CC003A699A61FB687A691A6200BF1C37BD468B
:1024DC0080BC704780B487B000AFF860B9607A6098
:1024EC00FB681B6A7B61FB681B6A23F01002FB68AC
:1024FC001A62FB689B693B613B6923F470433B6147
:10250C007B681B033A6913433B617B6923F0A0038F
:10251C007B61BB681B017A6913437B61FB683A6979
:10252C009A61FB687A691A6200BF1C37BD4680BC91
:10253C00704780B485B000AF786039607B689B6869
:10254C00FB60FB6823F07003FB603A68FB68134385
:10255C0043F00703FB607B68FA689A6000BF14378E
:10256C00BD4680BC704780B487B000AFF860B960DE
:10257C007A603B60FB689B687B617B6923F47F43DB
:10258C007B613B681A027B681A43BB6813437A6908
:10259C0013437B61FB687A699A6000BF1C37BD46A8
:1025AC0080BC704780B485B000AF786039607B68C0
:1025BC0093F83C30012B01D1022341E07B680122CE
:1025CC0083F83C207B68022283F83D207B681B68E3
:1025DC005B68FB607B681B689B68BB60FB6823F0D7
:1025EC007003FB603B681B68FA681343FB607B68F5
:1025FC001B68FA685A607B681B68144A934209D0BE
:10260C007B681B68B3F1804F04D07B681B68104A51
:10261C0093420CD1BB6823F08003BB603B685B68C2
:10262C00BA681343BB607B681B68BA689A607B68A6
:10263C00012283F83D207B68002283F83C20002394
:10264C0018461437BD4680BC704700BF002C0140B3
:10265C000004004080B483B000AF786000BF0C373A
:10266C00BD4680BC704780B483B000AF786000BFBB
:10267C000C37BD4680BC704703460244934200D1E0
:10268C00704703F8011BF9E770B500260C4D0D4C93
:10269C00641BA410A64209D100F01AF800260A4DBA
:1026AC000A4C641BA410A64205D170BD55F8043B1E
:1026BC0098470136EEE755F8043B98470136F2E7A8
:1026CC00302800083028000830280008342800087A
:1026DC00F8B500BFF8BC08BC9E467047F8B500BF03
:0826EC00F8BC08BC9E467047D3
:1026F40001000000010000000100000001000000D2
:1027040001000000010000000000000000000000C3
:1027140001000000010000000000000000000000B3
:1027240000000000000000000100000001000000A3
:102734000000000001000000010000000000000093
:102744000100000001000000010000000100000081
:102754000100000000000000000000000100000073
:102764000000000001000000010000000000000063
:102774000000000001000000010000000100000052
:102784000000000001000000010000000000000043
:102794000100000001000000010000000000000032
:1027A4000100000001000000010000000100000021
:1027B4000100000001000000010000000100000011
:1027C4000000000000000000000000000000000005
:1027D40001000000010000000100000001000000F1
:1027E40001000000010000000100000001000000E1
:1027F40001000000010000000100000000000000D2
:1028040001000000010000000000000000000000C2
:102814000102030406070809020304050607080960
:0C2824000A0B0C0D0E0F1010010200003A
:04283000310100086A
:042834000D0100088A
:10283800010000000100000001000000010000008C
:10284800010000000100000001000000010000007C
:10285800010000000100000001000000010000006C
:1028680064000000640000006400000000100140E3
:1028780000100140001001400020004000800000CE
:0C2888000024F40010000000010000001B
:04000005080010459A
:00000001FF
